{
  "contractName": "Hospital",
  "abi": [
    {
      "constant": true,
      "inputs": [],
      "name": "medicalRecord",
      "outputs": [
        {
          "name": "",
          "type": "address"
        }
      ],
      "payable": false,
      "stateMutability": "view",
      "type": "function"
    },
    {
      "constant": true,
      "inputs": [],
      "name": "medNetwork",
      "outputs": [
        {
          "name": "",
          "type": "address"
        }
      ],
      "payable": false,
      "stateMutability": "view",
      "type": "function"
    },
    {
      "constant": true,
      "inputs": [],
      "name": "admin",
      "outputs": [
        {
          "name": "",
          "type": "address"
        }
      ],
      "payable": false,
      "stateMutability": "view",
      "type": "function"
    },
    {
      "inputs": [
        {
          "name": "_contract",
          "type": "address"
        },
        {
          "name": "_admin",
          "type": "address"
        }
      ],
      "payable": false,
      "stateMutability": "nonpayable",
      "type": "constructor"
    },
    {
      "constant": false,
      "inputs": [
        {
          "name": "_fullName",
          "type": "bytes32"
        },
        {
          "name": "_access",
          "type": "bool"
        }
      ],
      "name": "addPatient",
      "outputs": [],
      "payable": false,
      "stateMutability": "nonpayable",
      "type": "function"
    },
    {
      "constant": false,
      "inputs": [
        {
          "name": "_fullName",
          "type": "bytes32"
        },
        {
          "name": "_symptoms",
          "type": "uint8"
        }
      ],
      "name": "enterHospital",
      "outputs": [],
      "payable": false,
      "stateMutability": "nonpayable",
      "type": "function"
    },
    {
      "constant": false,
      "inputs": [
        {
          "name": "_fullName",
          "type": "bytes32"
        }
      ],
      "name": "leaveHospital",
      "outputs": [],
      "payable": false,
      "stateMutability": "nonpayable",
      "type": "function"
    },
    {
      "constant": true,
      "inputs": [
        {
          "name": "_fullName",
          "type": "bytes32"
        }
      ],
      "name": "patientHasRecord",
      "outputs": [
        {
          "name": "",
          "type": "bool"
        }
      ],
      "payable": false,
      "stateMutability": "view",
      "type": "function"
    }
  ],
  "bytecode": "0x6060604052341561000f57600080fd5b6040516040806107d783398101604052808051906020019091908051906020019091905050816000806101000a81548173ffffffffffffffffffffffffffffffffffffffff021916908373ffffffffffffffffffffffffffffffffffffffff16021790555033600260006101000a81548173ffffffffffffffffffffffffffffffffffffffff021916908373ffffffffffffffffffffffffffffffffffffffff16021790555080600160006101000a81548173ffffffffffffffffffffffffffffffffffffffff021916908373ffffffffffffffffffffffffffffffffffffffff16021790555050506106d0806101076000396000f300606060405260043610610083576000357c0100000000000000000000000000000000000000000000000000000000900463ffffffff1680630b291848146100885780631ad2bac2146100c757806346734c2c1461011c5780635a00369314610143578063c107cd8a14610175578063c2afc8d5146101a8578063f851a440146101fd575b600080fd5b341561009357600080fd5b6100ad600480803560001916906020019091905050610252565b604051808215151515815260200191505060405180910390f35b34156100d257600080fd5b6100da6103a7565b604051808273ffffffffffffffffffffffffffffffffffffffff1673ffffffffffffffffffffffffffffffffffffffff16815260200191505060405180910390f35b341561012757600080fd5b6101416004808035600019169060200190919050506103cc565b005b341561014e57600080fd5b610173600480803560001916906020019091908035151590602001909190505061047a565b005b341561018057600080fd5b6101a660048080356000191690602001909190803560ff16906020019091905050610537565b005b34156101b357600080fd5b6101bb610658565b604051808273ffffffffffffffffffffffffffffffffffffffff1673ffffffffffffffffffffffffffffffffffffffff16815260200191505060405180910390f35b341561020857600080fd5b61021061067e565b604051808273ffffffffffffffffffffffffffffffffffffffff1673ffffffffffffffffffffffffffffffffffffffff16815260200191505060405180910390f35b60008160036000826000191660001916815260200190815260200160002060010160009054906101000a900460ff16806102d95750600260009054906101000a900473ffffffffffffffffffffffffffffffffffffffff1673ffffffffffffffffffffffffffffffffffffffff163373ffffffffffffffffffffffffffffffffffffffff16145b15156102e457600080fd5b6000809054906101000a900473ffffffffffffffffffffffffffffffffffffffff1673ffffffffffffffffffffffffffffffffffffffff16630774bde9846000604051602001526040518263ffffffff167c0100000000000000000000000000000000000000000000000000000000028152600401808260001916600019168152602001915050602060405180830381600087803b151561038457600080fd5b6102c65a03f1151561039557600080fd5b50505060405180519050915050919050565b6000809054906101000a900473ffffffffffffffffffffffffffffffffffffffff1681565b6000809054906101000a900473ffffffffffffffffffffffffffffffffffffffff1673ffffffffffffffffffffffffffffffffffffffff1663af579101826040518263ffffffff167c0100000000000000000000000000000000000000000000000000000000028152600401808260001916600019168152602001915050600060405180830381600087803b151561046357600080fd5b6102c65a03f1151561047457600080fd5b50505050565b600160009054906101000a900473ffffffffffffffffffffffffffffffffffffffff1673ffffffffffffffffffffffffffffffffffffffff163373ffffffffffffffffffffffffffffffffffffffff161415156104d657600080fd5b8160036000846000191660001916815260200190815260200160002060000181600019169055508060036000846000191660001916815260200190815260200160002060010160006101000a81548160ff0219169083151502179055505050565b600160009054906101000a900473ffffffffffffffffffffffffffffffffffffffff1673ffffffffffffffffffffffffffffffffffffffff163373ffffffffffffffffffffffffffffffffffffffff1614151561059357600080fd5b6000809054906101000a900473ffffffffffffffffffffffffffffffffffffffff1673ffffffffffffffffffffffffffffffffffffffff1663d3205de283836040518363ffffffff167c010000000000000000000000000000000000000000000000000000000002815260040180836000191660001916815260200182600481111561061b57fe5b60ff16815260200192505050600060405180830381600087803b151561064057600080fd5b6102c65a03f1151561065157600080fd5b5050505050565b600260009054906101000a900473ffffffffffffffffffffffffffffffffffffffff1681565b600160009054906101000a900473ffffffffffffffffffffffffffffffffffffffff16815600a165627a7a723058201f71f59bdebcdc251cec88eed444059c945c826b90286e5bcaf682aa6267e9990029",
  "source": "pragma solidity ^0.4.17;\n\nimport './MedicalRecord.sol';\n\ncontract Hospital {\n  MedicalRecord public medicalRecord;\n  address public admin;\n  address public medNetwork;\n\n  struct Patient {\n    bytes32 fullName;\n    bool access;\n  }\n\n  mapping(bytes32 => Patient) patients;\n\n  modifier onlyAdmin() {\n    require(msg.sender == admin);\n    _;\n  }\n\n  modifier onlyIfGrantedAccess(bytes32 _fullName) {\n    require(patients[_fullName].access || msg.sender == medNetwork);\n    _;\n  }\n\n  /**\n   * @dev Hospital constructor\n   * @param  _contract [address of MedicalRecord contract]\n   * @param  _admin [address of Hospital admin]\n   */\n  function Hospital(address _contract, address _admin) public {\n    medicalRecord = MedicalRecord(_contract);\n    medNetwork = msg.sender;\n    admin = _admin;\n  }\n\n  /**\n   * @dev Add a Patient Profile into Hospital system\n   * @param  _fullName [Patient Full Name]\n   * @param   _access   [Authorization given by Patient to access his infos]\n   */\n  function addPatient(bytes32 _fullName, bool _access) onlyAdmin public {\n    patients[_fullName].fullName = _fullName;\n    patients[_fullName].access = _access;\n  }\n\n  /**\n   * @dev Add a patient admission record inside the hospital\n   * @param  _fullName [Patient Full Name]\n   * @param  _symptoms     [Symptom of the visit]\n   */\n  function enterHospital(bytes32 _fullName, MedicalRecord.Symptoms _symptoms) onlyAdmin public {\n    medicalRecord.addAdmissionRecord(_fullName, _symptoms);\n  }\n\n  /**\n   * @dev Add a patient discharge record for the hospital\n   * @param  _fullName [Patient Full Name]\n   */\n  function leaveHospital(bytes32 _fullName) public {\n    medicalRecord.addDischargeRecord(_fullName);\n  }\n\n  /**\n   * @dev Display if a patient has an admission record within the hospital\n   * @param  _fullName [Patient Full Name]\n   * @return  Returns Yes if patient has stayed in the hospital before, false otherwise\n   */\n  function patientHasRecord(bytes32 _fullName)\n  onlyIfGrantedAccess(_fullName)\n  view public returns (bool) {\n    return medicalRecord.recordExist(_fullName);\n  }\n}\n",
  "sourcePath": "/Users/fcheng/workspace/Personal/blockchain-examples/hospital_dapp/contracts/Hospital.sol",
  "compiler": {
    "name": "solc",
    "version": "0.4.19+commit.c4cbbb05.Emscripten.clang"
  },
  "schemaVersion": "2.0.0",
  "updatedAt": "2018-02-28T03:40:19.105Z"
}