{
  "contractName": "MedicalRecord",
  "abi": [
    {
      "constant": false,
      "inputs": [
        {
          "name": "_fullName",
          "type": "bytes32"
        },
        {
          "name": "_symptoms",
          "type": "uint8"
        }
      ],
      "name": "addAdmissionRecord",
      "outputs": [],
      "payable": false,
      "stateMutability": "nonpayable",
      "type": "function"
    },
    {
      "constant": false,
      "inputs": [
        {
          "name": "_fullName",
          "type": "bytes32"
        }
      ],
      "name": "addDischargeRecord",
      "outputs": [],
      "payable": false,
      "stateMutability": "nonpayable",
      "type": "function"
    },
    {
      "constant": true,
      "inputs": [
        {
          "name": "_fullName",
          "type": "bytes32"
        }
      ],
      "name": "recordExist",
      "outputs": [
        {
          "name": "",
          "type": "bool"
        }
      ],
      "payable": false,
      "stateMutability": "view",
      "type": "function"
    }
  ],
  "bytecode": "0x6060604052341561000f57600080fd5b6104008061001e6000396000f300606060405260043610610057576000357c0100000000000000000000000000000000000000000000000000000000900463ffffffff1680630774bde91461005c578063af5791011461009b578063d3205de2146100c2575b600080fd5b341561006757600080fd5b6100816004808035600019169060200190919050506100f5565b604051808215151515815260200191505060405180910390f35b34156100a657600080fd5b6100c060048080356000191690602001909190505061015c565b005b34156100cd57600080fd5b6100f360048080356000191690602001909190803560ff1690602001909190505061023c565b005b6000806000803373ffffffffffffffffffffffffffffffffffffffff1673ffffffffffffffffffffffffffffffffffffffff168152602001908152602001600020600084600019166000191681526020019081526020016000208054905014159050919050565b600060016000803373ffffffffffffffffffffffffffffffffffffffff1673ffffffffffffffffffffffffffffffffffffffff1681526020019081526020016000206000846000191660001916815260200190815260200160002080549050039050426000803373ffffffffffffffffffffffffffffffffffffffff1673ffffffffffffffffffffffffffffffffffffffff168152602001908152602001600020600084600019166000191681526020019081526020016000208281548110151561022357fe5b9060005260206000209060030201600201819055505050565b610244610332565b60606040519081016040528083600481111561025c57fe5b8152602001428152602001600081525090506000803373ffffffffffffffffffffffffffffffffffffffff1673ffffffffffffffffffffffffffffffffffffffff1681526020019081526020016000206000846000191660001916815260200190815260200160002080548060010182816102d7919061035f565b9160005260206000209060030201600083909190915060008201518160000160006101000a81548160ff0219169083600481111561031157fe5b02179055506020820151816001015560408201518160020155505050505050565b6060604051908101604052806000600481111561034b57fe5b815260200160008152602001600081525090565b81548183558181151161038c5760030281600302836000526020600020918201910161038b9190610391565b5b505050565b6103d191905b808211156103cd57600080820160006101000a81549060ff02191690556001820160009055600282016000905550600301610397565b5090565b905600a165627a7a723058200724857a074ae644a544bb257e6601c597bbc5fbf4bd6d5fbc28701688a1fe180029",
  "source": "pragma solidity ^0.4.17;\n\ncontract MedicalRecord {\n  enum Symptoms {ChestPain, HeadAche, Vomiting, Sprain, Fractures}\n\n  struct Visit {\n    Symptoms symptoms;\n    uint256 admissionDate;\n    uint256 dischargeDate;\n  }\n\n  mapping(address => mapping(bytes32 => Visit[])) visits;\n\n  /**\n   * @dev Add an admission record\n   * @param  _fullName [Patient Full Name]\n   * @param  _symptoms     [Symptom of the visit]\n   */\n  function addAdmissionRecord(bytes32 _fullName, Symptoms _symptoms) external {\n    Visit memory visit = Visit(_symptoms, now, 0);\n    visits[msg.sender][_fullName].push(visit);\n  }\n\n  /**\n   * @dev Add a patient discharge record\n   * @param  _fullName [Patient Full Name]\n   */\n  function addDischargeRecord(bytes32 _fullName) external {\n   uint256 lastVisitIndex = visits[msg.sender][_fullName].length - 1;\n   visits[msg.sender][_fullName][lastVisitIndex].dischargeDate = now;\n  }\n\n  /**\n   * @dev Display if a patient has an admission record\n   * @param  _fullName [Patient Full Name]\n   * @return  Returns Yes if patient has an admission record\n   */\n  function recordExist(bytes32 _fullName) view external returns (bool) {\n    return visits[msg.sender][_fullName].length != 0;\n  }\n}\n",
  "sourcePath": "/Users/fcheng/workspace/Personal/blockchain-examples/hospital_dapp/contracts/MedicalRecord.sol",
  "compiler": {
    "name": "solc",
    "version": "0.4.19+commit.c4cbbb05.Emscripten.clang"
  },
  "schemaVersion": "2.0.0",
  "updatedAt": "2018-02-28T03:40:19.374Z"
}