{
  "contractName": "MedNetwork",
  "abi": [
    {
      "constant": true,
      "inputs": [],
      "name": "medicalRecord",
      "outputs": [
        {
          "name": "",
          "type": "address"
        }
      ],
      "payable": false,
      "stateMutability": "view",
      "type": "function"
    },
    {
      "constant": true,
      "inputs": [
        {
          "name": "",
          "type": "uint256"
        }
      ],
      "name": "hospitals",
      "outputs": [
        {
          "name": "",
          "type": "address"
        }
      ],
      "payable": false,
      "stateMutability": "view",
      "type": "function"
    },
    {
      "constant": true,
      "inputs": [],
      "name": "owner",
      "outputs": [
        {
          "name": "",
          "type": "address"
        }
      ],
      "payable": false,
      "stateMutability": "view",
      "type": "function"
    },
    {
      "constant": false,
      "inputs": [
        {
          "name": "newOwner",
          "type": "address"
        }
      ],
      "name": "transferOwnership",
      "outputs": [],
      "payable": false,
      "stateMutability": "nonpayable",
      "type": "function"
    },
    {
      "inputs": [
        {
          "name": "_recordContract",
          "type": "address"
        }
      ],
      "payable": false,
      "stateMutability": "nonpayable",
      "type": "constructor"
    },
    {
      "anonymous": false,
      "inputs": [
        {
          "indexed": false,
          "name": "contractAddress",
          "type": "address"
        }
      ],
      "name": "HospitalCreation",
      "type": "event"
    },
    {
      "anonymous": false,
      "inputs": [
        {
          "indexed": true,
          "name": "previousOwner",
          "type": "address"
        },
        {
          "indexed": true,
          "name": "newOwner",
          "type": "address"
        }
      ],
      "name": "OwnershipTransferred",
      "type": "event"
    },
    {
      "constant": false,
      "inputs": [
        {
          "name": "_admin",
          "type": "address"
        }
      ],
      "name": "addHospital",
      "outputs": [],
      "payable": false,
      "stateMutability": "nonpayable",
      "type": "function"
    },
    {
      "constant": true,
      "inputs": [
        {
          "name": "_fullName",
          "type": "bytes32"
        },
        {
          "name": "_hospital",
          "type": "address"
        }
      ],
      "name": "patientHasRecordForHospital",
      "outputs": [
        {
          "name": "",
          "type": "bool"
        }
      ],
      "payable": false,
      "stateMutability": "view",
      "type": "function"
    },
    {
      "constant": true,
      "inputs": [
        {
          "name": "_fullName",
          "type": "bytes32"
        }
      ],
      "name": "patientHasRecordInNetwork",
      "outputs": [
        {
          "name": "",
          "type": "bool"
        }
      ],
      "payable": false,
      "stateMutability": "view",
      "type": "function"
    }
  ],
  "bytecode": "0x6060604052341561000f57600080fd5b6040516020806111e183398101604052808051906020019091905050336000806101000a81548173ffffffffffffffffffffffffffffffffffffffff021916908373ffffffffffffffffffffffffffffffffffffffff16021790555080600260006101000a81548173ffffffffffffffffffffffffffffffffffffffff021916908373ffffffffffffffffffffffffffffffffffffffff16021790555050611125806100bc6000396000f300606060405260043610610083576000357c0100000000000000000000000000000000000000000000000000000000900463ffffffff1680631ad2bac2146100885780631b470bc7146100dd57806381dc6fd2146101165780638da5cb5b146101795780639e5b42ce146101ce578063b1166d181461022c578063f2fde38b1461026b575b600080fd5b341561009357600080fd5b61009b6102a4565b604051808273ffffffffffffffffffffffffffffffffffffffff1673ffffffffffffffffffffffffffffffffffffffff16815260200191505060405180910390f35b34156100e857600080fd5b610114600480803573ffffffffffffffffffffffffffffffffffffffff169060200190919050506102ca565b005b341561012157600080fd5b610137600480803590602001909190505061049e565b604051808273ffffffffffffffffffffffffffffffffffffffff1673ffffffffffffffffffffffffffffffffffffffff16815260200191505060405180910390f35b341561018457600080fd5b61018c6104dd565b604051808273ffffffffffffffffffffffffffffffffffffffff1673ffffffffffffffffffffffffffffffffffffffff16815260200191505060405180910390f35b34156101d957600080fd5b61021260048080356000191690602001909190803573ffffffffffffffffffffffffffffffffffffffff16906020019091905050610502565b604051808215151515815260200191505060405180910390f35b341561023757600080fd5b610251600480803560001916906020019091905050610658565b604051808215151515815260200191505060405180910390f35b341561027657600080fd5b6102a2600480803573ffffffffffffffffffffffffffffffffffffffff1690602001909190505061076c565b005b600260009054906101000a900473ffffffffffffffffffffffffffffffffffffffff1681565b60008060009054906101000a900473ffffffffffffffffffffffffffffffffffffffff1673ffffffffffffffffffffffffffffffffffffffff163373ffffffffffffffffffffffffffffffffffffffff1614151561032757600080fd5b600260009054906101000a900473ffffffffffffffffffffffffffffffffffffffff16826103536108c1565b808373ffffffffffffffffffffffffffffffffffffffff1673ffffffffffffffffffffffffffffffffffffffff1681526020018273ffffffffffffffffffffffffffffffffffffffff1673ffffffffffffffffffffffffffffffffffffffff16815260200192505050604051809103906000f08015156103d257600080fd5b9050600180548060010182816103e891906108d1565b9160005260206000209001600083909190916101000a81548173ffffffffffffffffffffffffffffffffffffffff021916908373ffffffffffffffffffffffffffffffffffffffff160217905550507f32f0aa9776d672ee04ab3aa9736c66e1cefe591c47d165fba8013a8ffe67617b81604051808273ffffffffffffffffffffffffffffffffffffffff1673ffffffffffffffffffffffffffffffffffffffff16815260200191505060405180910390a15050565b6001818154811015156104ad57fe5b90600052602060002090016000915054906101000a900473ffffffffffffffffffffffffffffffffffffffff1681565b6000809054906101000a900473ffffffffffffffffffffffffffffffffffffffff1681565b6000808260008060009150600090505b6001805490508110156105a3578273ffffffffffffffffffffffffffffffffffffffff1660018281548110151561054557fe5b906000526020600020900160009054906101000a900473ffffffffffffffffffffffffffffffffffffffff1673ffffffffffffffffffffffffffffffffffffffff16141561059657600191506105a3565b8080600101915050610512565b8115156105af57600080fd5b8593508373ffffffffffffffffffffffffffffffffffffffff16630b291848886000604051602001526040518263ffffffff167c0100000000000000000000000000000000000000000000000000000000028152600401808260001916600019168152602001915050602060405180830381600087803b151561063157600080fd5b6102c65a03f1151561064257600080fd5b5050506040518051905094505050505092915050565b60008060008091505b6001805490508210156107605760018281548110151561067d57fe5b906000526020600020900160009054906101000a900473ffffffffffffffffffffffffffffffffffffffff1690508073ffffffffffffffffffffffffffffffffffffffff16630b291848856000604051602001526040518263ffffffff167c0100000000000000000000000000000000000000000000000000000000028152600401808260001916600019168152602001915050602060405180830381600087803b151561072a57600080fd5b6102c65a03f1151561073b57600080fd5b50505060405180519050156107535760019250610765565b8180600101925050610661565b600092505b5050919050565b6000809054906101000a900473ffffffffffffffffffffffffffffffffffffffff1673ffffffffffffffffffffffffffffffffffffffff163373ffffffffffffffffffffffffffffffffffffffff161415156107c757600080fd5b600073ffffffffffffffffffffffffffffffffffffffff168173ffffffffffffffffffffffffffffffffffffffff161415151561080357600080fd5b8073ffffffffffffffffffffffffffffffffffffffff166000809054906101000a900473ffffffffffffffffffffffffffffffffffffffff1673ffffffffffffffffffffffffffffffffffffffff167f8be0079c531659141344cd1fd0a4f28419497f9722a3daafe3b4186f6b6457e060405160405180910390a3806000806101000a81548173ffffffffffffffffffffffffffffffffffffffff021916908373ffffffffffffffffffffffffffffffffffffffff16021790555050565b6040516107d78061092383390190565b8154818355818115116108f8578183600052602060002091820191016108f791906108fd565b5b505050565b61091f91905b8082111561091b576000816000905550600101610903565b5090565b9056006060604052341561000f57600080fd5b6040516040806107d783398101604052808051906020019091908051906020019091905050816000806101000a81548173ffffffffffffffffffffffffffffffffffffffff021916908373ffffffffffffffffffffffffffffffffffffffff16021790555033600260006101000a81548173ffffffffffffffffffffffffffffffffffffffff021916908373ffffffffffffffffffffffffffffffffffffffff16021790555080600160006101000a81548173ffffffffffffffffffffffffffffffffffffffff021916908373ffffffffffffffffffffffffffffffffffffffff16021790555050506106d0806101076000396000f300606060405260043610610083576000357c0100000000000000000000000000000000000000000000000000000000900463ffffffff1680630b291848146100885780631ad2bac2146100c757806346734c2c1461011c5780635a00369314610143578063c107cd8a14610175578063c2afc8d5146101a8578063f851a440146101fd575b600080fd5b341561009357600080fd5b6100ad600480803560001916906020019091905050610252565b604051808215151515815260200191505060405180910390f35b34156100d257600080fd5b6100da6103a7565b604051808273ffffffffffffffffffffffffffffffffffffffff1673ffffffffffffffffffffffffffffffffffffffff16815260200191505060405180910390f35b341561012757600080fd5b6101416004808035600019169060200190919050506103cc565b005b341561014e57600080fd5b610173600480803560001916906020019091908035151590602001909190505061047a565b005b341561018057600080fd5b6101a660048080356000191690602001909190803560ff16906020019091905050610537565b005b34156101b357600080fd5b6101bb610658565b604051808273ffffffffffffffffffffffffffffffffffffffff1673ffffffffffffffffffffffffffffffffffffffff16815260200191505060405180910390f35b341561020857600080fd5b61021061067e565b604051808273ffffffffffffffffffffffffffffffffffffffff1673ffffffffffffffffffffffffffffffffffffffff16815260200191505060405180910390f35b60008160036000826000191660001916815260200190815260200160002060010160009054906101000a900460ff16806102d95750600260009054906101000a900473ffffffffffffffffffffffffffffffffffffffff1673ffffffffffffffffffffffffffffffffffffffff163373ffffffffffffffffffffffffffffffffffffffff16145b15156102e457600080fd5b6000809054906101000a900473ffffffffffffffffffffffffffffffffffffffff1673ffffffffffffffffffffffffffffffffffffffff16630774bde9846000604051602001526040518263ffffffff167c0100000000000000000000000000000000000000000000000000000000028152600401808260001916600019168152602001915050602060405180830381600087803b151561038457600080fd5b6102c65a03f1151561039557600080fd5b50505060405180519050915050919050565b6000809054906101000a900473ffffffffffffffffffffffffffffffffffffffff1681565b6000809054906101000a900473ffffffffffffffffffffffffffffffffffffffff1673ffffffffffffffffffffffffffffffffffffffff1663af579101826040518263ffffffff167c0100000000000000000000000000000000000000000000000000000000028152600401808260001916600019168152602001915050600060405180830381600087803b151561046357600080fd5b6102c65a03f1151561047457600080fd5b50505050565b600160009054906101000a900473ffffffffffffffffffffffffffffffffffffffff1673ffffffffffffffffffffffffffffffffffffffff163373ffffffffffffffffffffffffffffffffffffffff161415156104d657600080fd5b8160036000846000191660001916815260200190815260200160002060000181600019169055508060036000846000191660001916815260200190815260200160002060010160006101000a81548160ff0219169083151502179055505050565b600160009054906101000a900473ffffffffffffffffffffffffffffffffffffffff1673ffffffffffffffffffffffffffffffffffffffff163373ffffffffffffffffffffffffffffffffffffffff1614151561059357600080fd5b6000809054906101000a900473ffffffffffffffffffffffffffffffffffffffff1673ffffffffffffffffffffffffffffffffffffffff1663d3205de283836040518363ffffffff167c010000000000000000000000000000000000000000000000000000000002815260040180836000191660001916815260200182600481111561061b57fe5b60ff16815260200192505050600060405180830381600087803b151561064057600080fd5b6102c65a03f1151561065157600080fd5b5050505050565b600260009054906101000a900473ffffffffffffffffffffffffffffffffffffffff1681565b600160009054906101000a900473ffffffffffffffffffffffffffffffffffffffff16815600a165627a7a723058201f71f59bdebcdc251cec88eed444059c945c826b90286e5bcaf682aa6267e9990029a165627a7a7230582016c61e4486ff18a8a56c76ee321184750ac62f71c706b07042f76fb354b2f09b0029",
  "source": "pragma solidity ^0.4.17;\n\nimport './Hospital.sol';\nimport './Ownable.sol';\n\ncontract MedNetwork is Ownable {\n  address[] public hospitals;\n  address public medicalRecord;\n\n  event HospitalCreation(address contractAddress);\n\n  /**\n   * @dev Med Network Contract Constructor\n   * @param _recordContract [address of MedicalRecord contract]\n   */\n  function MedNetwork(address _recordContract) public {\n    medicalRecord = _recordContract;\n  }\n\n  modifier onlyIfAuthorized(address _hospital) {\n    bool authorized = false;\n    for (uint256 i = 0; i < hospitals.length; i++) {\n      if (hospitals[i] == _hospital) {\n        authorized = true;\n        break;\n      }\n    }\n\n    require(authorized);\n    _;\n  }\n\n  /**\n   * @dev Add a hospital to the system network\n   * @param  _admin [wallet address of hospital user admin]\n   */\n  function addHospital(address _admin) onlyOwner public {\n    address newHospital = new Hospital(medicalRecord, _admin);\n    hospitals.push(newHospital);\n    HospitalCreation(newHospital);\n  }\n\n  /**\n   * @dev Display if a patient has an admission record within a specific hospital\n   * @param  _fullName [Patient Full Name]\n   * @param  _hospital [address of Hospital contract]\n   * @return  Returns Yes if patient has stayed in the hospital before, false otherwise\n   */\n  function patientHasRecordForHospital(bytes32 _fullName, address _hospital) onlyIfAuthorized(_hospital) view public returns (bool) {\n    Hospital hospital = Hospital(_hospital);\n    return hospital.patientHasRecord(_fullName);\n  }\n\n  /**\n   * @dev Display if a patient had an admission record in one of the hospital within the network\n   * @param  _fullName [Patient Full Name]\n   * @return  [Returns Yes if patient has stayed in any hospital in the network before, false otherwise]\n   */\n  function patientHasRecordInNetwork(bytes32 _fullName) public view returns (bool) {\n    for (uint256 i = 0; i < hospitals.length; i++) {\n      Hospital hospital = Hospital(hospitals[i]);\n      if (hospital.patientHasRecord(_fullName)) {\n        return true;\n      }\n    }\n    return false;\n  }\n}\n",
  "sourcePath": "/Users/fcheng/workspace/Personal/blockchain-examples/hospital_dapp/contracts/MedNetwork.sol",
  "compiler": {
    "name": "solc",
    "version": "0.4.19+commit.c4cbbb05.Emscripten.clang"
  },
  "schemaVersion": "2.0.0",
  "updatedAt": "2018-02-28T03:40:19.376Z"
}